:020000040800F2
:100000008810002045010008790A0008310900081D
:10001000750A000871030008D718000800000000E6
:10002000000000000000000000000000191200089D
:10003000C505000800000000970E00081D13000809
:100040005F0100085F0100085F0100085F01000810
:100050005F0100085F0100085F0100085F01000800
:100060005F0100085F0100085F0100085F010008F0
:100070005F0100085F0100085F0100085F010008E0
:100080005F0100085F0100085F0100085F010008D0
:100090005F0100085F0100085F0100085F010008C0
:1000A0005F0100085F0100085F0100085F010008B0
:1000B0005F0100085F0100085F0100085F010008A0
:1000C0005F0100085F0100085F0100085F01000890
:1000D0005F010008AD1500085F0100080D1600085B
:1000E0005F0100085F0100085F0100085F01000870
:1000F0005F0100085F0100085F0100085F01000860
:100100005F0100085F0100085F0100085F0100084F
:100110005F0100085F0100085F0100085F0100083F
:100120005F0100085F0100085F0100085F0100082F
:10013000DFF80CD000F06AF800480047851E000880
:10014000881000200648804706480047FEE7FEE783
:10015000FEE7FEE7FEE7FEE7FEE7FEE7FEE7FEE777
:10016000A11300083101000830B505462A460B46A8
:1001700012F8010B13F8014B08B1A042F8D01CB1E2
:10018000002802D06D1CF1E7284630BD10B50022D2
:1001900000E0521C835C8C5CA34201D1002BF8D19F
:1001A000D8B2E1B2401A10BD2DE9F05F054600203B
:1001B00092469B4688460646814640241BE02846D8
:1001C00041464746224600F042F853465A46C01A76
:1001D000914110D311461846224600F029F82D1AF5
:1001E00067EB01084F4622460120002100F020F86D
:1001F00017EB00094E41201EA4F10104DFDC484644
:1002000031462A464346BDE8F09F0000064C074DA4
:1002100006E0E06840F0010394E8070098471034D6
:10022000AC42F6D3FFF788FF642000088420000862
:10023000202A04DB203A00FA02F1002070479140A6
:10024000C2F1200320FA03F3194390407047202A9B
:1002500004DB203A21FA02F00021704721FA02F370
:10026000D040C2F120029140084319467047000077
:1002700008B50121102000F08DFE10208DF803003C
:100280000120ADF8000003208DF802006946044803
:1002900000F0B6F90121024800F08FFA08BD000015
:1002A0000010014008B54FF4A06000F01FFC2720AB
:1002B0008DF8000001208DF801008DF802008DF806
:1002C0000300684600F0DAFB08BD000000B585B009
:1002D0000121880400F04EFE0121082000F05AFEA2
:1002E0004FF48060ADF8100018208DF81300032043
:1002F0008DF8120004A91C4800F082F94FF4006048
:10030000ADF8100004208DF8130004A9164800F081
:1003100077F94FF4164000900020ADF80400ADF8D6
:100320000600ADF80800ADF80C000C20ADF80A008E
:1003300069460E4801F05AFAFFF7B4FF012240F275
:1003400025510A4801F02DFA012240F224410748C4
:1003500001F027FA0121054801F091F940210348F5
:1003600001F084F905B000BD000C014000480040D8
:1003700000BFFEE70748006840F08070054908604C
:100380000020054948600846006840F00100086008
:1003900070470000FCED00E0001000E001484068FC
:1003A00070470000001000E031B5002310480068DD
:1003B000104DB0FBF5F0009D00FB05F400BFFFF70A
:1003C000EDFF024611E0FFF7E9FF014691420CD034
:1003D000914202D9881A034403E0C2F1FF30084475
:1003E00003440A46A34200D300E0ECE700BF38BD57
:1003F0000000002040420F002DE9F04107468846EA
:1004000015460421052000F02DF80021012001F0FF
:1004100081FA80210A2000F000FF002405E0395D08
:10042000092001F077FA601CC4B24445F7DB0321D0
:10043000012001F06FFAFF2400BF052000F024FE28
:100440000646601EC4B21CB106F004000028F4D0B9
:10045000222000F019FE2870212000F015FE68709F
:10046000BDE8F08170B505460C46284600F00CFE4C
:10047000064626EA0401284601F04CFA70BD000049
:1004800010B500203E49086075E03D480068052829
:100490002DDB3B480068072829DC3AA13A48FFF7E2
:1004A00063FE40B136480068401F3849085C38494F
:1004B000334A1268885437A13348FFF755FE40B1DC
:1004C0002F480068401F3449085C31492C4A1268A3
:1004D000885432A13448FFF747FE40B928480068E5
:1004E000401F3249085C2A49254A1268885424482A
:1004F000006807280CDD22480068102808DA204828
:10050000006808382849085C21491D4A1268885447
:100510001B480068102820DB1948006815281CDAE1
:1005200023A12148FFF732FE20B11CA11E48FFF78E
:100530002DFE48B91248006810382049095C14485B
:100540000F4A1268815408E00D48006810381C49B1
:10055000085C0F490A4A126888540948006815283F
:1005600004D100210A48064A1268815404480068F0
:10057000401C0349086002480068142885DB10BD50
:100580002C000020303130004500002061000020A8
:100590003000002031303000650000203030303035
:1005A0003131313100000000800800205D00002062
:1005B0003133323635313935000000006900002012
:1005C0006E0000207047000001B50C4900980860DB
:1005D0004FF0E020006940F001004FF0E021086199
:1005E00000BF064800680028FBD14FF0E0200069FA
:1005F00020F001004FF0E021086108BD2800002034
:100600002DE9F041024600250026002000230024A9
:10061000002791F803C00CF00F0591F803C00CF00F
:10062000100CBCF1000F03D091F802C04CEA050594
:1006300091F800C0BCF1000F31D0146800202BE00D
:100640004FF0010C0CFA00F3B1F800C00CEA0306FD
:100650009E4220D183004FF00F0C0CFA03F7BC43ED
:1006600005FA03FC4CEA040491F803C0BCF1280F1E
:1006700006D14FF0010C0CFA00FCC2F814C00AE0DD
:1006800091F803C0BCF1480F05D14FF0010C0CFAF2
:1006900000FCC2F810C0401C0828D1D31460B1F887
:1006A00000C0BCF1FF0F34DD546800202EE000F1E3
:1006B000080C4FF0010808FA0CF3B1F800C00CEA7E
:1006C00003069E4221D183004FF00F0C0CFA03F772
:1006D000BC4305FA03FC4CEA040491F803C0BCF1E6
:1006E000280F05D100F1080C08FA0CF8C2F81480A4
:1006F00091F803C0BCF1480F07D100F1080C4FF08E
:10070000010808FA0CF8C2F81080401C0828CED363
:100710005460BDE8F0810000F0B50A4600230024D3
:100720000021002500F00046B6F1004F02D11D4E19
:10073000F16901E01B4E7168C0F3034583B200F418
:100740004016B6F5401F08D121F07061154E76684D
:1007500026F07066134F7E6012E000F48016B6F546
:10076000801F06D1032606FA05F4A14341F070610B
:1007700006E0460D360103FA06F6B14341F070611A
:1007800022B1460D360103FA06F6314300F0004669
:10079000B6F1004F02D1034EF16101E0014E7160EC
:1007A000F0BD0000000001400246002093680B40AD
:1007B0000BB1012000E000207047416170470161EA
:1007C0007047000008B501214FF4887000F0E2FB8B
:1007D0001020ADF8000004208DF8030003208DF8F0
:1007E000020069460848FFF70BFF4FF48070ADF830
:1007F000000010208DF8030003208DF802006946E8
:100800000248FFF7FDFE08BD001001400020014036
:1008100010B5FFF7D7FFFFF759FD002415E004EBF3
:10082000C40101EB04120E4901EB42000DA101F0DD
:1008300099F804EBC40101EB04120B4901EB4200EF
:1008400008A101F08FF8601CC4B20A2CE7DB00207D
:100850000349491E0870012104A000F01BF810BDD7
:100860009F08002020000000930A002041540D0A38
:100870000000000010B504464FF480710348FFF7F4
:100880009CFF2146024801F037F810BD00200140CE
:10089000004800402DE9F84305460C46032634E0A5
:1008A0004FF480711F48FFF78AFF29461E4801F068
:1008B00023F84FF4FA7742F21070FFF775FD00BF8E
:1008C000684601F0D5FA8046BDF8000000280FDD2B
:1008D00016A14046FFF748FC50B100BF00BF00BF63
:1008E00000BF012C01D101F097FA0020BDE8F88388
:1008F00042F21070FFF758FD781E0700E0D100BFEC
:1009000000BF00BF00BF00BF00BF3000A6F1010163
:10091000CEB2C5D100BF00BF012C01D101F07CFADD
:100920000120E3E700200140004800404F4B000059
:1009300000BFFEE70EB572E0394890F802040128C6
:1009400024D1002136480288801C815400F0B6FB77
:1009500034A13648FFF708FC98B1C321344800F0B1
:10096000B0FD344801F06CFAB921314800F0A9FD1E
:1009700031A1344800F0F6FFFFF782FD3248FFF75F
:1009800079FF0020264981F80204088002A952203C
:1009900000F0D9F90446262C41D102A800F0B0F8A5
:1009A00026283CD102A800F03DFA02AB274A1121CB
:1009B000602000F0DEF89DF80B009DF80A10CDE9EC
:1009C00000109DF809309DF8082021A11D4800F075
:1009D000C9FFFFF755FD1C48FFF74CFF2149194897
:1009E000FFF7D4FB58B9C321114800F06AFD114844
:1009F00001F026FAB9210E4800F063FD0DE0012157
:100A00001948FFF7DCFE194801F01AFA01211648CF
:100A1000FFF7D3FE164801F013FA00F07BF98BE7DD
:100A20007C040020313131310000000049000020F9
:100A30000004004080F0FA02303030303131313182
:100A40000000000080080020300000204E00002040
:100A5000253032582530325825303258253032581A
:100A6000000000005400002000100140404B4C00EA
:100A7000005A620200BFFEE77047000070B5002117
:100A800000230F22C47804B3154C246804F4E064F6
:100A9000C4F5E064210AC1F10403CA40447804FAB1
:100AA00003F184781440214309010E4C0678A155C6
:100AB000047804F01F050124AC4005786D11AD00E9
:100AC00005F1E025C5F8004109E0047804F01F05B0
:100AD0000124AC40044D0678761145F8264070BDDF
:100AE0000CED00E000E400E080E100E00249014399
:100AF000024A1160704700000000FA050CED00E0AA
:100B0000F0B587B00546002708210846FFF7AAFC84
:100B100000210D2000F0FEFE80210E20FFF7A2FC38
:100B200093208DF8080020208DF8090001A802AB61
:100B3000022202A900900C2000F053F80646262E4F
:100B400010D1002407E002A8005D285502A8005D2E
:100B50004740601CC4B2042CF5DB02A8005DB8421B
:100B600000D0BB2680210E2000F057FB304607B096
:100B7000F0BD2DE9F04387B006460F4690469946F2
:100B80008DF808608DF80970002406E018F804104C
:100B900002AAA01C1154601CC4B2062CF6DB00246F
:100BA00007E019F8041002AA04F108001154601CAF
:100BB000C4B2062CF5DB01A802AB0C2202A90090FE
:100BC0000E2000F00EF80546262D05D1082000F075
:100BD0005BFA00F0080000B9BB25284607B0BDE865
:100BE000F0832DE9FE4F0646884691469A46DDF889
:100BF00030B0BB2002900020019000900C2E06D057
:100C00000E2E09D1122001901020009005E07720CF
:100C100001903020009000E000BF00BF019840F03C
:100C20008001022000F076FE80210420FFF71AFCEC
:100C30000021012000F06EFE80210A2000F0EDFA74
:100C4000002505E018F80510092000F063FE6D1C72
:100C50004D45F7D33146012000F05CFE0C2E03D148
:100C600080210D2000F0D9FA4FF47A7500BF0420DE
:100C700000F00AFA04466D1E35B104F0010018B9FF
:100C8000009820400028F2D080210D20FFF7EAFBD9
:100C900095B3062000F0F8F900F01B0068BB262091
:100CA00002900198204000F0010008B1CC20029091
:100CB0000C2E24D10A2000F0E7F904460C2000F0A5
:100CC000E3F900F007072FB1601E07EBC000CBF877
:100CD000000002E0E000CBF8000004B90124122C6F
:100CE00000DD1224002505E0092000F0CDF90AF806
:100CF00005006D1CA542F7D301E0BB2002908021C6
:100D00000C2000F08AFA0021012000F003FE029876
:100D1000BDE8FE8F00B587B050208DF80800002098
:100D20008DF809000DF10A02022102A8FFF764FB09
:100D300001A802AB042202A900900C20FFF751FF8A
:100D4000262007B000BD70B588B005460C460821C6
:100D50000846FFF787FB07210D2000F0DBFD03218C
:100D6000142000F05AFA8DF80C5002A803AB0122AF
:100D700003A900900C20FFF734FF0646262E09D168
:100D80000298102806D19DF80C0020709DF80D00E7
:100D9000607000E0BB26304608B070BD10B54FF45F
:100DA00080711F48FFF70BFD0120FFF70DFC4FF48A
:100DB00080711B48FFF701FD0120FFF705FC4FF490
:100DC00080711748FFF7FBFC0120FFF7FDFB0F21A7
:100DD000012000F09FFD00BF012000F055F900F058
:100DE00010000028F8D10120FFF7EEFB3D21112073
:100DF00000F090FD1E212D2000F08CFD00212C2004
:100E000000F088FD8D212A2000F084FD3E212B205A
:100E100000F080FD4021152000F07CFD10BD000099
:100E2000000C014070B588B0054693208DF80C0089
:100E300070208DF80D0000208DF8120000240BE0CA
:100E4000295D03AAA01C11549DF81200295D484099
:100E50008DF81200601CC4B2042CF1DB0DF11302FA
:100E6000072103A8FFF7C8FA08210846FFF7FAFA96
:100E700002A803AB092203A900900C20FFF7B1FEE2
:100E80000646262E03D10298182800D100E0BB2682
:100E9000304608B070BD704710B500F00FF84FF441
:100EA00080710448FFF78BFC10210348FFF787FC93
:100EB00010BD0000000C01400008014008B50121F0
:100EC000042000F067F81020ADF8000003208DF832
:100ED000020010208DF8030069462448FFF790FBBC
:100EE0000121082000F056F84FF40050ADF8000042
:100EF00003208DF8020010208DF8030069461C487D
:100F0000FFF77EFB0121082000F044F84FF4004079
:100F1000ADF8000003208DF8020010208DF80300CA
:100F200069461348FFF76CFB0121082000F032F8F6
:100F30004FF48040ADF8000004208DF803006946AE
:100F40000B48FFF75DFB0121082000F023F84FF468
:100F50008070ADF8000003208DF8020010208DF89D
:100F6000030069460248FFF74BFB08BD000801403B
:100F7000000C014029B1064AD2690243044BDA61F0
:100F800004E0034AD2698243014BDA6170470000F2
:100F90000010024029B1064A92690243044B9A614B
:100FA00004E0034A92698243014B9A617047000052
:100FB0000010024030B500210022002400232D4DF6
:100FC0006D6805F00C0121B1042905D0082923D151
:100FD00005E0294D056022E0274D05601FE0254D05
:100FE0006D6805F47012234D6D6805F48034022598
:100FF00005EB92421CB9214D554305600BE01D4D98
:101000006D6805F400351DB11C4D5543056002E0C7
:10101000194D5543056002E0174D056000BF00BF44
:10102000144D6D6805F0F0010909154D6B5C0568FC
:10103000DD4045600F4D6D6805F4E061090A104D13
:101040006B5C4568DD4085600A4D6D6805F4605154
:10105000C90A0B4D6B5C4568DD40C560054D6D6888
:1010600005F44041890B074D6B5CC568B5FBF3F592
:10107000056130BD0010024000127A0000093D00F9
:10108000140000202400002070B504467E2000EAF1
:10109000440040F0800510210748FFF78EFB2846EA
:1010A00000F08CF800F060F8064610210248FFF7C7
:1010B00086FB304670BD00000008014010B50020DE
:1010C000234908600CE0234821490968405C224913
:1010D0001F4A126888541E480068401C1C4908605A
:1010E0001B4800680328EEDB1CA11B48FFF73CF8F7
:1010F00020B91BA11848FFF737F8B0B100201449F8
:1011000008600DE0134812490968C91C405C154984
:101110000F4A126888540E480068401C0C49086049
:101120000B4800680428EDDB11E000200849086046
:1011300009E030200B49064A1268885404480068C8
:10114000401C03490860024800680428F1DB10BD18
:101150002C0000207E0400204500002030313000AB
:10116000313030004900002070B500251FE06006D6
:10117000040E4FF400511048FFF71FFB0220FFF749
:1011800023FA4FF480410C48FFF70EFB012801D1F0
:1011900044F001040220FFF717FA4FF4005106480B
:1011A000FFF70DFB0220FFF70FFA681CC5B2082DF0
:1011B000DDDB204670BD0000000C014070B5044628
:1011C000002524E004F0800028B14FF400411148CC
:1011D000FFF7F5FA04E04FF400410E48FFF7EDFA8F
:1011E0000220FFF7F1F94FF400510A48FFF7E5FA42
:1011F0000220FFF7E9F94FF400510648FFF7DFFA44
:101200000220FFF7E1F96006040E681CC5B2082D44
:10121000D8DB70BD000C0140704770B505460C4628
:101220002846FFF731FF064646EA0401284600F04B
:1012300071FB70BD10B500F001F810BD0CB50020B9
:10124000019000903348006840F4803031490860D4
:1012500000BF3048006800F4003000900198401C46
:101260000190009818B90198B0F5A06FF1D1294804
:10127000006800F4003010B10120009001E000206F
:1012800000900098012843D12348006840F01000E6
:10129000214908600846006820F0030008600846FD
:1012A000006840F0020008601A4840681949486028
:1012B0000846406848600846406840F480604860DE
:1012C0000846406820F47C1048600846406840F4B6
:1012D000E81048600846006840F08070086000BF71
:1012E0000C48006800F000700028F9D009484068F8
:1012F00020F00300074948600846406840F00200BB
:10130000486000BF0348406800F00C000828F9D18D
:101310000CBD0000001002400020024010B500F09B
:1013200025F910BD30B51A4800681A4AB0FBF2F131
:10133000B1F1807F01D301201DE021F07F40401EEC
:101340004FF0E022506150170F22002807DA1307F0
:101350001D0E114B00F00F04241F1D5503E0130751
:101360001C0E0E4B1C5400BF00204FF0E022906179
:1013700007201061002008B100BFFEE74FF0E02019
:10138000006920F001004FF0E021086130BD00004D
:101390000000002040420F0018ED00E000E400E0F3
:1013A00010B51348006840F0010011490860084674
:1013B0004068104908400E494860084600680E49D8
:1013C00008400B4908600846006820F48020086047
:1013D0000846406820F4FE0048604FF41F00886013
:1013E000FFF728FF4FF000600449086010BD0000BF
:1013F000001002400000FFF8FFFFF6FE08ED00E0DD
:1014000021B1028842F00102028004E002884FF616
:10141000FE731A400280704770B50024002200233A
:10142000058C4FF6FE7635400584028C8388048B4C
:101430004FF68F752C40B51E2C400D882C43751E21
:101440002A400D892A434D882A43144DA8420BD0C7
:10145000134DA84208D0134DA84205D0124DA84202
:1014600002D0124DA84213D14FF6F7752A404D898C
:101470002A434FF6FB752A408D882A434FF6FF65B5
:101480002B404FF6FF552B408D892B43CD892B43A5
:1014900083800483CD888586028470BD002C014042
:1014A0000034014000400140004401400048014038
:1014B0000A460021018B4FF6F7731940114301834F
:1014C0007047818670470000002202881D4B9842B9
:1014D0000ED01D4B98420BD0B0F1804F08D01B4B63
:1014E000984205D01A4B984202D01A4B984204D128
:1014F0004FF68F731A404B881A43174B984207D008
:10150000164B984204D04FF6FF431A40CB881A433B
:1015100002808B8883850B8803850A4B98420BD009
:10152000094B984208D00E4B984205D00D4B98427B
:1015300002D00D4B984201D10B7A0386012383829E
:1015400070470000002C01400034014000040040BE
:1015500000080040000C0040001000400014004053
:101560000040014000440140004801400448006838
:1015700020B103480068401E014908607047000020
:101580002800002008B54FF4A060FFF7AFFA25202F
:101590008DF8000001208DF801008DF802008DF813
:1015A00003006846FFF76AFA08BD000010B540F274
:1015B0002551144800F0CBF8A8B1124800F082F988
:1015C000C4B211480088B0F5806F0CDA0A2C0AD03A
:1015D0000D2C08D00C480188801C4454801E0088C3
:1015E000401C0949088040F22441064800F0AFF849
:1015F000012805D1044981F80204024800F062F98B
:1016000010BD0000003801407800002010B540F205
:101610002551144800F09BF8A8B1124800F052F987
:10162000C4B211480088B0F5806F0CDA0A2C0AD0D9
:101630000D2C08D00C480188801C4454801E008862
:10164000401C0949088040F22441064800F07FF818
:10165000012805D1044981F80204024800F032F95A
:1016600010BD0000004800407C04002001F400721E
:10167000B2F5007F00D100BFCA430280704721B19C
:10168000828942F40052828104E082894DF6FF7320
:101690001A4082817047000000B585B00121042006
:1016A000FFF778FC01218803FFF774FC4FF400700A
:1016B000ADF8100018208DF8130003208DF81200EB
:1016C00004A91A48FEF79CFF4FF48060ADF81000A3
:1016D00004208DF8130004A91448FEF791FF4FF47D
:1016E000E13000900020ADF80400ADF80600ADF840
:1016F0000800ADF80C000C20ADF80A0069460C4853
:1017000000F074F8FFF73EFF012240F2255108482F
:1017100000F047F8012240F22441054800F041F86A
:1017200001210348FFF7ABFF05B000BD00080140F1
:101730000038014002460020B1F5007F00D100BF13
:1017400013880B400BB1012000E00020704770B5FA
:101750000246002400230025002040F66A16B1420C
:1017600000D100BFC1F3421501F01F03012606FAA4
:1017700003F3012D02D19689334006E0022D02D1F8
:10178000168A334001E0968A33400C12012606FA8D
:1017900004F41688344013B10CB1012000E000209D
:1017A00070BDF0B50346002400260025002040F659
:1017B0006A17B94200D100BF1846C1F3421401F0C4
:1017C0001F06012707FA06F5012C01D10C3004E0B1
:1017D000022C01D1103000E014301AB107682F43F9
:1017E000076002E00768AF430760F0BD2DE9F047EE
:1017F00086B005460E460024A24600BFA14600273B
:10180000B08900B100BF2F462C8A4CF6FF7004400F
:10181000F08804432C82AC894EF6F3100440B08863
:1018200031890843718908430443AC81AC8A4FF67F
:10183000FF400440B0890443AC8201A8FFF7BAFB23
:101840001F48874202D1DDF810A001E0DDF80CA0AE
:10185000A88900F4004040B10AEBCA0000EB0A106E
:1018600031684900B0FBF1F807E00AEBCA0000EB71
:101870000A1031688900B0FBF1F86420B8FBF0F081
:1018800004012009642101FB1089A88900F40040AB
:1018900040B1322000EBC900B0FBF1F000F00700CE
:1018A000044308E0322000EB09106421B0FBF1F0A2
:1018B00000F00F0004432C8106B0BDE8F087000063
:1018C0000038014001468888C0F308007047C1F322
:1018D00008028280704700BFFEE770B504460D46DF
:1018E00029462046FFF7F3FF00BF80212046FFF77F
:1018F00021FF0028F9D070BD70B506460C460025C2
:1019000000BF615D3046FFF7E8FF6D1C605D002899
:10191000F7D170BD70B504460D467E2000EA44063E
:1019200010210748FEF749FF3046FFF747FC2846DD
:10193000FFF744FC10210248FEF741FF70BD000094
:10194000000801400FB4054B10B503A9044A0298E2
:1019500000F02CF810BC5DF814FB00004D1E0008D0
:10196000740000200FB4084B10B504A902AA039814
:1019700000F01CF8044602A9002000F048FA2046B6
:1019800010BC5DF814FB00000F1E000802E008C840
:10199000121F08C1002AFAD170477047002001E0E9
:1019A00001C1121F002AFBD1704700002DE9FF4F33
:1019B0008DB00F460546002606E025280BD0DDE950
:1019C0000F1290476D1C761C28780028F5D111B0B5
:1019D0003046BDE8F08F0024A246A1460122EC4922
:1019E00000E0044315F8013F203B02FA03F00842EF
:1019F000F7D128782A2810D06FF02F022878A0F18C
:101A00003001092914D80AEB8A0102EB410144F0A4
:101A1000020400EB010A6D1CF0E701CF5FEA000A47
:101A200003D544F40054CAF1000A44F002046D1CCA
:101A300028782E2817D115F8010F44F004042A281D
:101A40000ED06FF02F022878A0F1300109290AD8B2
:101A500009EB890102EB410100EB01096D1CF2E782
:101A600057F8049B6D1C28786C280FD006DC4C2896
:101A700017D068280DD06A2814D104E0742810D03B
:101A80007A280FD10DE044F400140AE044F48014E5
:101A900001E044F440146978814202D104F58014D5
:101AA0006D1C6D1C2A786E2A1FD00CDC632A31D085
:101AB00004DC002A8BD0582A11D1A3E0642A68D014
:101AC000692A0CD165E0732A2ED004DC6F2A73D00A
:101AD000702A04D19BE0752A6FD0782A6ED0104608
:101AE000DDE90F129047761C50E1C4F30250022842
:101AF00006D0032809D0042801CF09D0066045E1AB
:101B000001CFF117C0E9006140E101CF06803DE15E
:101B100006703BE117F8040B8DF8000000208DF8EB
:101B20000100EB46012003E057F804BB4FF0FF3003
:101B300061074FF0000102D40DE008F10101884671
:101B400049450FDA8045F8DB1BF808100029F4D16D
:101B500008E008F1010188468142FADB1BF8081011
:101B60000029F6D1DDE90F23AAEB080081462146C2
:101B700000F036F9304400EB080604E0DDE90F120E
:101B80001BF8010B9047B8F10108F7D221464846EF
:101B9000F7E00A21C4F302534FF0000B0891022B27
:101BA00004D001CFC117032B09D00AE0FF1D27F095
:101BB0000707F7E8020108E032E01FE020E000B28A
:101BC000C117042B01D140B2C117031E71F10003EC
:101BD00007DA4FF0000CD0EB0C006CEB01012D2369
:101BE00002E0230504D52B238DF82430012303E0E4
:101BF000E30701D02023F7E7984658E00A2110E0D8
:101C000010210EE010204FF0000B08900CE0102186
:101C10004FF0000B44F004044FF00809089103E072
:101C200008214FF0000B0891C4F30253022B04D09B
:101C300001CF0021032B06D006E0FF1D27F0070788
:101C4000F7E8020103E080B2042B00D1C0B24FF0EC
:101C5000000823072BD5702A07D0DDF820C08CF0B0
:101C6000100C5CEA0B0C05D00EE040238DF82430FC
:101C7000012308E050EA010306D030238DF8243018
:101C80008DF8252002239846DDF820C08CF0080C42
:101C90005CEA0B0C0BD150EA010301D1630706D5B6
:101CA00030238DF824304FF00108A9F10109582A9A
:101CB00004D038A20B9208AA0A920BE03AA2F9E7E4
:101CC0005B46089AFEF770FA0B9B9B5C0A9A521EC1
:101CD0000A92137050EA0102F2D10A98ADEB0000AB
:101CE00000F1200B600702D524F4803401E04FF0AE
:101CF0000109D94502DDA9EB0B0000E0002000EB53
:101D00000B0141440890AAEB010AE00306D4DDE987
:101D10000F232146504600F063F806444FF00009B7
:101D200008E009A911F80900DDE90F12904709F14F
:101D30000109761CC145F4DBE0030CD5DDE90F2376
:101D40002146504600F04CF8064404E0DDE90F124D
:101D500030209047761C0899481E08900029F5DC31
:101D600008E00A980A990078491C0A91DDE90F12E7
:101D70009047761CBBF10001ABF1010BF1DC214671
:101D80005046DDE90F2300F019F806446D1C1BE6F0
:101D90000928010030313233343536373839616241
:101DA0006364656600000000303132333435363705
:101DB0003839414243444546000000002DE9F041D6
:101DC000044600251E461746880404D405E039461B
:101DD0002020B0476D1C641EF9D52846BDE8F0816F
:101DE0002DE9F041044600251E469046C80301D562
:101DF000302700E02027880404D505E04146384616
:101E0000B0476D1C641EF9D52846BDE8F0810A680C
:101E1000531C0B601070704740F201400021074ACC
:101E2000118082F8021406E00022411E8BB218468F
:101E30000249891CCA540028F6D170477C0400204E
:101E400000BF0100A0F10100FBD1704770B504464E
:101E50000D46E1B20548FFF73AFD00BF8021034877
:101E6000FFF768FC0028F9D0204670BD003801401B
:101E700001460348008808800148801C7047000024
:101E80007C040020FEF776FAFFF706FCFEF7C0FCA4
:101E900018B918A0FFF756FD04E01F48FFF752FDE0
:101EA00000BFFEE701211DA0FEF7F4FC01211EA0EA
:101EB000FEF7F0FC01211FA0FEF7ECFC012120A0A1
:101EC000FEF7E8FC012122A0FEF7E4FC012125A099
:101ED000FEF7E0FCFFF726FAFFF7DEFBFEF7DCFF7C
:101EE000FEF75CFFFEF7C4F900F042F801E0FEF7F0
:101EF00021FDFCE73C3C2D484330352D494E464FF3
:101F00002D3E3E2048433035C4A3BFE9BCECB2E2CD
:101F1000D5FDB3A3A1A30A000820000841542B5209
:101F2000455345540D0A000041542B4F52474C0D68
:101F30000A00000041542B494E49540D0A0000008C
:101F400041542B434C4153533D300D0A00000000D7
:101F500041542B494E514D3D312C392C34380D0A0A
:101F60000000000041542B494E510D0A00000000B2
:101F700000B589B001211020FFF70CF801210220E3
:101F8000FEF7F8FF01210846FFF704F84020ADF8FE
:101F9000200003208DF8220018208DF8230008A9C6
:101FA0001648FEF72DFBC720ADF8180041F61F407C
:101FB000ADF814000020ADF81A00ADF8160005A920
:101FC0000F48FFF781FA01210E48FEF7A5FB6020BC
:101FD000ADF804000120ADF806000220ADF80C00B9
:101FE00001A90748FFF718FA08210548FFF760FA2A
:101FF00001210348FFF704FA09B000BD00100140B9
:1020000000040040000C1A003C3C2D484330352DA4
:102010004552524F522D3E3E2048433035C4A3BF57
:10202000E9BCECB2E2B2BBD5FDB3A3A3ACC7EBBC39
:10203000ECB2E9C4A3BFE9D3EBBFAAB7A2B0E5B540
:10204000C4C1ACBDD3A3ACC8BBBAF3B8B4CEBBBF9C
:10205000AAB7A2B0E5D6D8D0C2B2E2CAD4A1A30A28
:10206000000000008420000800000020780000002C
:102070008C190008FC2000087800002010100000D7
:102080009C19000800A24A040000000000000000A3
:10209000010203040607080900000000010203040E
:1020A00001020304060708090204060800000000F4
:1020B0000000000032323232410000000000000017
:1020C0000000000000000000000000000000000010
:1020D0000000FFFFFFFFFFFF313332363531393566
:1020E00000303031003031300031303000313131AA
:0C20F000310030303030000000000000F3
:0400000508000131BD
:00000001FF
